{
  "abi": [
    {
      "inputs": [],
      "name": "number",
      "outputs": [
        {
          "internalType": "uint256",
          "name": "",
          "type": "uint256"
        }
      ],
      "stateMutability": "view",
      "type": "function"
    },
    {
      "inputs": [],
      "name": "retrieve",
      "outputs": [
        {
          "internalType": "uint256",
          "name": "",
          "type": "uint256"
        }
      ],
      "stateMutability": "view",
      "type": "function"
    },
    {
      "inputs": [
        {
          "internalType": "uint256",
          "name": "num",
          "type": "uint256"
        }
      ],
      "name": "store",
      "outputs": [],
      "stateMutability": "nonpayable",
      "type": "function"
    }
  ],
  "bytecode": {
    "object": "0x6080604052602c60005534801561001557600080fd5b5060bf806100246000396000f3fe6080604052348015600f57600080fd5b5060043610603c5760003560e01c80632e64cec11460415780636057361d1460575780638381f58a146069575b600080fd5b6000545b60405190815260200160405180910390f35b606760623660046071565b600055565b005b604560005481565b600060208284031215608257600080fd5b503591905056fea26469706673582212203463448950f1165a2653fd05930cd09a61cfbb4245eb00d773720fe272e8092a64736f6c63430008140033",
    "linkReferences": {}
  },
  "methodIdentifiers": {
    "number()": "8381f58a",
    "retrieve()": "2e64cec1",
    "store(uint256)": "6057361d"
  },
  "id": 0
}